:020000040800F2
:1000000050AC032045D10408C1680408C368040843
:10001000C5680408C7680408C9680408000000002F
:10002000000000000000000000000000C96203089A
:10003000CB680408000000006D620308075C030839
:1000400045D9040849D904084DD9040851D90408F0
:1000500055D9040859D904085DD9040861D90408A0
:1000600065D9040869D904086DD9040871D9040850
:1000700075D9040879D904087DD9040881D9040800
:1000800085D9040889D904088DD9040891D90408B0
:1000900095D9040899D904089DD90408A1D9040860
:1000A000A5D90408A9D90408ADD90408B1D9040810
:1000B000CD680408B5D90408B9D90408BDD9040825
:1000C000C1D90408C5D90408C9D90408CDD9040880
:1000D000D1D90408D5D90408D9D90408D7680408A7
:1000E000DDD90408E1D90408E5D90408E9D90408F0
:1000F000EDD90408F1D90408F5D90408F9D90408A0
:10010000FDD9040801DA040805DA040809DA04084C
:100110000DDA040811DA040815DA040819DA0408FB
:100120001DDA040821DA040825DA040829DA0408AB
:100130002DDA0408E168040831DA040835DA040825
:1001400039DA04083DDA040841DA040845DA04081B
:1001500049DA04084DDA040851DA040855DA0408CB
:1001600059DA04085DDA040861DA040865DA04087B
:1001700069DA04086DDA040871DA04080000000086
:10018000EB68040875DA040879DA04087DDA0408F3
:1001900081DA040885DA040889DA04088DDA0408AB
:1001A00091DA040895DA040899DA04089DDA04085B
:1001B000A1DA0408A5DA0408A9DA0408ADDA04080B
:1001C000B1DA0408B5DA040800000000B9DA04085E
:1001D000BDDA0408C1DA0408C5DA0408C9DA04087B
:1001E000CDDA0408D1DA0408D5DA0408D9DA04082B
:1001F000DDDA0408E1DA0408080070470100086845
:10020000002801D1002001E0086840697047010022
:100210000868002801D1002001E008684078704794
:1002200010B504000021200005F054F810BDC16B8A
:10023000002908D0C16BD1F8C011002903D0C16BCF
:10024000D1F8C01101E00168896E002901D10020B8
:1002500000E00868704701000868D0F8CC00C0F3DF
:100260004000002801D00D2000E00520704701006B
:100270000868D0F8CC00C0F34000002801D00C2062
:1002800000E004207047F8B403001D000E000020B9
:100290008DF80000002494420AD2285D375D9DF855
:1002A00000C0784050EA0C008DF80000641CF2E7B2
:1002B0009DF80000F2BC704701000868D0F8CC003F
:1002C000C0F34000002801D0022000E00020704769
:1002D00038B504000D00606D002805D02A00290003
:1002E0008908206D636D984731BD10B50400A06D7D
:1002F000002801D1002008E0206DA16D8847022868
:1003000002D15FF0FF3000E0002010BD10B5040006
:10031000200004F06DFA0100002905D044F24D10D0
:10032000814201D2080001E044F24D1010BD38B501
:100330000400D4F8D0502000FFF7E8FF0100A942E4
:1003400002D2DFF8700B01E04D1B280032BDF8B57A
:1003500004004FF480472000FFF7E9FF0500002D5F
:1003600001D5280012E02E00200004F00FFA010051
:10037000002901D5080009E00A00B24201D300209B
:1003800004E0B61ABE4200D33E003000F2BD0100C8
:10039000C86BD0F8E4010A68D2F8B020904202D3CA
:1003A0005FF0FF3022E0C86BD0F8E4010A68D2F8B1
:1003B000AC20904204D04FF4FE70CA6BA2F84C02FD
:1003C000C86BD0F8E4014200C86BD0F8E401824267
:1003D00004D30868D0F8B000904203D20868D0F87F
:1003E000B0000200C86BC0F8E4210020704701682B
:1003F000D1F8AC10C26BC2F8E41170472DE9FF4F81
:10040000B1B03E9C3F9D409E684605F094F93398FC
:1004100005F04AFB20181430812802D3DFF8980A2F
:10042000EDE0329F7F1C7F0831980A903198329915
:100430000844794208440990339805F035FB80461A
:10044000CDF82080339807900DF1540B089A079946
:10045000584605F053FB06943498059010A8404484
:1004600010F1140B069A0599584605F047FB14EB5A
:100470000808CDF80C80032005F036F90490002818
:1004800002D1DFF8300ABAE001220499684605F08B
:100490007DF98046002801D04046B0E03A000A9934
:1004A000684605F0DAF9039A15A9684605F056FA88
:1004B00011A9684605F067FA5FF0000BB34531D229
:1004C000684605F0A7FA039A103211A9684605F0AC
:1004D00045FA0BA9684605F056FA684605F09AFAFF
:1004E000102211A9684605F039FA11A9684605F0ED
:1004F0004AFA1BF11000864202D216F00F0901E001
:100500005FF0100900208246CA4508D20BA810F8F7
:100510000A001AEB0B0168541AF1010AF4E71BF107
:10052000100BCBE7684605F011F9042005F0DCF864
:100530000490002802D1DFF87C0960E001220499D0
:10054000684605F023F90590002801D0059856E08B
:100550003A000999684605F080F9039A15A968469A
:1005600005F0FCF910A9684605F00DFA5FF00008E7
:10057000B04538D2684605F04DFA039A143210A9F6
:10058000684605F0EBF90BA9684605F0FCF96846EA
:1005900005F040FA142210A9684605F0DFF910A909
:1005A000684605F0F0F918F11400864205D21420CF
:1005B000B6FBF0F900FB196901E05FF014090020B7
:1005C0008246CA450CD21AEB0800295C0BA810F829
:1005D0000A0041401AEB080029541AF1010AF0E719
:1005E00018F11408C4E7684605F0B0F8802110A897
:1005F00005F0DCFA14210BA805F0D8FA002035B07C
:10060000BDE8F08F2DE9FF4FB9B0479C489D499E4A
:10061000684605F090F89DF8E40005F065F8039051
:10062000002802D1DFF88C088AE0039805F034FA3C
:1006300081463C9805F038FA10EB09002018812813
:1006400002D3DFF874087BE03C9805F02DFA82466F
:10065000CDF820A03C98079019A800EB090B089A48
:100660000799584605F04AFA06944698059019A845
:10067000484400EB0A0B069A0599584605F03EFAE5
:1006800014EB0A0ACDF810A001220399684605F080
:100690007DF88246002801D0504651E03B9A3A99B5
:1006A000684605F0DAF8049A19A800EB09016846D3
:1006B00005F054F919A9684605F065F95FF0000BDB
:1006C000B34531D2684605F0A5F9049A12EB090248
:1006D00019A9684605F042F909A9684605F053F9D9
:1006E000684605F097F94A4619A9684605F036F9B3
:1006F00019A9684605F047F919EB0B00864204D2A8
:10070000B6FBF9F809FB186800E0C84600200700AE
:10071000474506D209A8C05D17EB0B0168547F1C42
:10072000F6E719EB0B0BCBE7684605F00FF88021D5
:1007300019A805F03BFA402109A805F037FA002076
:100740003DB0BDE8F08FF8B584B004000D00160090
:100750001F000C9803900B9802900A980190009744
:1007600033002A0021000620FFF74CFF05B0F0BD42
:10077000F8B584B004000D0016001F000C9803901B
:100780000B9802900A980190009733002A002100EC
:100790000720FFF737FF05B0F0BD2DE9F84FE6B0B1
:1007A00007000024B86B0390D7F84C80D7F83C9032
:1007B000D8F80000007A05F036FA0500002D02D1C5
:1007C000DFF8F4064CE2D8F80000407A04F08CFF21
:1007D00004900498002802D1DFF8DC0640E2786932
:1007E00003280CDADFF8700BC9F854040FF27940D3
:1007F000C9F84C04DFF8640BC9F8500427E07869A5
:10080000032811D1D8F80000407A07280CD1DFF86E
:10081000500BC9F854040FF2CD40C9F84C04DFF86E
:10082000440BC9F8500412E0786903280CD1DFF8B2
:10083000380BC9F854040FF28140C9F84C04DFF8B2
:100840002C0BC9F8500402E0DFF8680608E2D9F87A
:10085000C00800284AD1F86BD0F8D408012827D165
:100860000AA93800FA6BD2F84C249047786903281B
:1008700008D1F86C0068407A072801D1302602E0E0
:10088000202600E02426302002900398303001908A
:1008900000960AABDFF8D82AD9F8581409F29C4020
:1008A000D9F854C4E0470400002C14D02000D7E14C
:1008B000302002900398303001904020009009F2DF
:1008C0005C43DFF8B02AD9F8581409F29C40D9F8F3
:1008D0005464B0470400002C01D02000C0E140F275
:1008E000244109F29C4005F061F9FFE7402008909F
:1008F00009F25C40079056AE089A0799300005F05F
:10090000FDF8202006905EA8059009F25C46069A44
:100910000599300005F0F2F85FF0200A0DF5AC7B88
:1009200009F27C4652465946300005F0E7F840216E
:1009300056A805F03BF94FF48070029016A801907C
:100940004020009009F25C43DFF82C2A3021039804
:100950003030D9F85464B0470600002E01D0300082
:100960007EE1402109F25C4005F020F96868C0088A
:10097000C8F804006878062805D06878082802D0EE
:1009800068780A2821D10020C8F8140000240C201F
:10099000C8F80C0068780A2803D10C20C8F81000A9
:1009A00002E00420C8F81000D8F80000007F80079B
:1009B00001D5082000E01020D8F80C20D8F810103D
:1009C000511A4018C8F808005EE00122049918F195
:1009D000380004F0DBFE0600002808D1012204994B
:1009E00018F1440004F0D2FE0600002801D03000C7
:1009F00036E1049805F050F80400C8F81440039854
:100A0000406F012805D10A20C8F81400D8F8140056
:100A10000400E868C8F80C006878072804D1D8F802
:100A20001400C8F808002FE00398806F012806D151
:100A3000D8F8141068694118C8F808100DE0D8F803
:100A400014106A69D8F814306869C3185B1AB1FBCE
:100A5000F2F002FB0032C8F808207869002813D0B1
:100A60007869012810D07869022802D078690328B3
:100A700007D1D8F80810D8F80C004118C8F80810A9
:100A800002E0DFF83004EBE0386890F8CC00C007F3
:100A900036D416A800EB4400059016A800EB4400DD
:100AA000D8F804100844029016A8079016A820440D
:100AB0000690D8F81000002802D0D8F810A001E065
:100AC000D8F80CA0CDF824A00298D8F80410084457
:100AD000089018F1180B099A0899584605F00EF875
:100AE000CDF804A00298D8F80410084450440090AF
:100AF00018F1280B019A0099584604F0FFFF3DE0D9
:100B0000386890F8CC00C00736D516A800EB440032
:100B1000D8F804100844059016A800EB4400029091
:100B200016A82044079016A80690D8F810000028B0
:100B300002D0D8F810A001E0D8F80CA0CDF824A07D
:100B40000598D8F804100844089018F1280B099A61
:100B50000899584604F0D2FFCDF804A00598D8F8BB
:100B6000041008445044009018F1180B019A0099A1
:100B7000584604F0C3FF01E0CE4871E078690128CF
:100B800012DB002C0BD02200079918F1380004F07A
:100B900064FE2200069918F1440004F05EFE3868F5
:100BA000C06D002813D001E0C24859E0CDF804A080
:100BB000D8F804000090230016AA039810F1300121
:100BC0003868006ED7F800C0DCF85CC0E047290048
:100BD00018F1500005F073F88346002801D05846FC
:100BE0003EE0290018F1900005F069F806000028A1
:100BF00001D0300034E001236A68059918F15000F3
:100C000005F07FF88346002801D0584628E00023ED
:100C10006A68029918F1900005F073F80600002840
:100C200001D030001CE06878022813D1042118F1AB
:100C3000500005F06CFC8346002801D058460FE0B8
:100C4000042118F1900005F062FC0600002801D094
:100C5000300005E04FF4807116A804F0A7FF0020D3
:100C600067B0BDE8F08F000030B5ADB004000D00F6
:100C700017A805F0BDFD684606F070FCE06B10F5A6
:100C8000147117A805F0C8FDE06B10F52A716846CD
:100C900006F078FC290017A806F01DFB15F11001DD
:100CA000684608F044F917A805F0ADFD684606F05F
:100CB00060FC2DB030BD000030B59BB004000D00CD
:100CC000684608F001FAE06B10F54171684608F0DB
:100CD0000FFA2900684609F05FFB684608F0FFF943
:100CE0001BB030BD38B5B6B004000D00684609F041
:100CF00049FCE06B10F55C71684609F057FC29006F
:100D000068460AF03DFE684609F047FC37B030BD42
:100D10002DE9F84F84B004000D00E06B00F29C490F
:100D200009F224462068D0F894702068D0F89880A2
:100D3000E06BD0F8B801002807D0E06BD0F8B8011C
:100D40000700E06BD0F8BC0180462800C0B205283F
:100D500024D1B6EB0900022801DA5748A7E0404643
:100D6000000A89F8000019F1010080F8008010F1F4
:100D700001094E4503D3B6EB0900404501D24E4868
:100D800095E0CDF800805FF0000ACB46524600990E
:100D900058460BF015F809EB080260E02800C0B2D5
:100DA000072810D1B6EB0900022801DA42487EE09C
:100DB000002089F8000019F1010030210170401C69
:100DC00010F130024BE02800C0B2062820D1206884
:100DD000C069019020688069009003AB19F102029C
:100DE000B21A19F10201E06B001D0BF0B7FA010015
:100DF000002801D008005AE00398000A89F8000092
:100E000019F10100039A0270401C039A024426E083
:100E10002800C0B2082820D12068C069019020684D
:100E20008069009019F10203F31A19F1020202A974
:100E3000E06B80300BF0B2FD0100002801D008000B
:100E400035E00298000A89F8000019F10100029AC1
:100E50000270401C029A024401E0164827E0B01AD2
:100E6000022801DA144822E04046000A1070501CA3
:100E700080F8008010F101094E4503D3B6EB09005C
:100E8000404501D20C4812E0CDF80080BA46CB466E
:100E9000009A5146584604F031FE09EB0801E06B18
:100EA00000F29C40081AE26BC2F85804002005B01A
:100EB000BDE8F08F0094FFFF008FFFFF81B000239B
:100EC000002904D002785340401C491EF8E78DF8F1
:100ED00000309DF8002001B070472DE9F04FADB013
:100EE00005000024286B002802D0686C002802D17D
:100EF000DFF8FC0A2DE2686C5030FFF788F9060035
:100F00003000C0B2072807D03000C0B2022847D155
:100F1000286B806F002843D1686901283DDB0822D7
:100F2000D5F8B410686C383004F018FD0322D5F8F9
:100F3000B810686C383004F011FD0222D5F8BC10EE
:100F4000686C383004F00AFDD5F8CC20D5F8C41010
:100F5000686C383004F002FD21A9686C383004F068
:100F600012FD686C383004F055FD686C47690DF16E
:100F70008408D5F8C400D5F8CC1000EB01093A007C
:100F80004146484604F0BAFDD5F8CC10686C40697B
:100F90004118C5F8CC10641C02E0DFF8540AD8E10F
:100FA0003000C0B2072822D10020069006A8029087
:100FB000D5F8C4000190D5F8CC000090D5F8C43025
:100FC000686CC268686C10F11801686C503005F0EC
:100FD000DBFA0100002801D00800BAE1D5F8CC0006
:100FE000069A904200F0AF81DFF8040AB1E13000C8
:100FF000C0B2062808D03000C0B2082804D03000A3
:10100000C0B20A2840F0BF806F6C3868007F80074C
:1010100002D55FF0080801E05FF01008F968386950
:10102000091A08915FF00809D5F8B4A00DF1440B36
:101030004A465146584604F061FD0DF1440BD5F87F
:10104000C8008BF808000DF14D032868D0F8CC00DB
:10105000C0F340026969286904F005FAD5F8CC00AC
:10106000000A8BF80B00D5F8CC008BF80C00F86860
:101070000C2829D13869042826D13869049017F141
:10108000180002900DF12809049A0299484604F0CC
:1010900035FD5FF00809D5F8B40001900AA8396958
:1010A00000EB010A4A460199504604F027FD5FF023
:1010B000080AD5F8B4000090D5F8C0B0524600999F
:1010C000584604F01BFD2AE0F8680C2824D1386942
:1010D0000C2821D1D7F8109017F1180A0DF1280B20
:1010E0004A465146584604F009FD00210800C0B2A6
:1010F000082814DA0AA80A00D2B210440279D5F8F6
:10110000B4000B00DBB2C05C42400AA80B00DBB2AB
:1011100018440271491CE9E7DFF8D40819E1D5F851
:10112000C490D5F8CCA0D5F8CC1008984118C5F8D3
:10113000CC104046C0B2069009EB0A00059007A803
:101140000490CDF80C90CDF808A0CDF804900D20B7
:10115000009011ABFA680AA917F1500005F055FA92
:101160000100002801D00800F3E00798504502D0A4
:10117000DFF87C08EDE0D5F8CC0050FA88F0C5F82F
:10118000CC00641CDFE03000C0B2022840F0D88000
:1011900000200390D5F8CC00401C696CC9686A6CCB
:1011A000D268121AB0FBF1F801FB0828686CC0681D
:1011B000804501D1002080465FF00009C8450AD370
:1011C000D5F8C400D5F8CC1019EB010100F8018066
:1011D00019F10109F2E7D5F8CC1018F10100411816
:1011E000C5F8CC10D5F8CC000490D5F8C400059013
:1011F0006869022828DB686CC268686C10F1180105
:101200002868C0692B689B6998470700002F01D0A8
:1012100038009EE0686CC0680090686C10F1180A95
:10122000D5F8C0B0009A5146584604F067FCD5F88E
:10123000C4000590D5F8CC000490D5F8CC10686CAB
:10124000C0684118C5F8CC1003A802900598019019
:1012500004980090059B686CC268686C10F11801D6
:10126000686C503005F090F90990002801D0099879
:101270006FE004980399884202D0DFF8740768E0B1
:10128000686902280CDA686CC768686C10F1780A23
:10129000686C10F1180B3A005146584604F02EFCC9
:1012A000002C50D108200890D5F8B40002900DAF62
:1012B000089A0299380004F021FC0327D5F8B800F9
:1012C00001900DF13C0A3A000199504604F016FCD9
:1012D0000DA8D5F8CC10090AC172D5F8CC1001734D
:1012E0000D220DA9686C383004F038FBD5F8CC20FD
:1012F000D5F8C010686C383004F030FB15A9686C64
:10130000383004F040FB686C383004F083FB686CC4
:10131000406900900DF1540AD5F8C000D5F8CC1002
:1013200000EB010B009A5146584604F0E7FBD5F854
:10133000CC10686C40694118C5F8CC10641C02E000
:10134000DFF8AC0605E0012C02D0DFF8A40600E0CF
:1013500000202DB0BDE8F08FFD030008B53C00086B
:1013600071070008C13D0008470700084B3D000811
:1013700078C5040814D0040824D004082DE9F84FD7
:10138000AEB00600002400270125F06A002802D034
:10139000306C002802D1DFF8580625E3306C90301D
:1013A000FEF735FF8DF81C00F06F316C89688842BC
:1013B00002D2DFF8B80917E39DF81C00072820D1F6
:1013C000002004900020070004A80290306F0190D4
:1013D000F06F0090336F306CC268306C10F12801F0
:1013E000306C903005F0D0F80100002801D00800E2
:1013F000FAE2F06F049A904200F00282DFF8F00502
:10140000F2E29DF81C00062808D09DF81C00082870
:1014100004D09DF81C000A2840F0C880D6F840800F
:10142000D8F80000007F800702D55FF0080901E0CE
:101430005FF01009D8F80C10D8F81000091A0891BC
:10144000F06F089951FA89F1884202D2DFF81C093D
:10145000CAE2F16F0898091ACA465FFA8AFAB1EB34
:101460000A0A306F0990306F0E90C6F87CA00820F1
:101470000190306E00900DF1480B019A009958468A
:1014800004F03CFB0DF1480BB06F8BF808000DF138
:1014900051033068D0F8CC00C0F340027169306964
:1014A00003F0E1FFF06F000A8BF80B00F06F8BF890
:1014B0000C00D8F80C000C281FD1D8F81000042814
:1014C0001BD1D8F81000059018F1280002900DF1FA
:1014D0002C0B059A0299584604F010FB0820019045
:1014E000F06E00900BA8D8F8101000EB010B019AD9
:1014F0000099584604F002FB2DE0D8F80C000C28A7
:1015000026D1D8F810000C2822D1D8F8100001906C
:1015100018F1280000900DF12C0B019A0099584603
:1015200004F0ECFA00210800C0B2082813DA0BA876
:101530000A00D2B210440279306E0B00DBB2C05CFC
:1015400042400BA80B00DBB218440271491CEAE7C9
:10155000DFF89C0448E24846C0B20690099850441F
:1015600005900AA804900E980390CDF808A0099859
:1015700001900D20009012ABD8F80C200BA9306C14
:10158000903005F0A9F80100002807D011F5C64FEA
:1015900002D1DFF8D80727E2080025E2641C0A9888
:1015A000504500F02D81DFF848041DE29DF81C0035
:1015B000022840F023815FF000080020039070694A
:1015C000022803DB306CC06810EB0808F06F316C48
:1015D000C96811EB0801884207D3F06F316C496983
:1015E00011EB0801491C884202D2DFF88007FBE1B9
:1015F000D6F87C90306F0690306F0590F06A806F5F
:10160000012847D1306C4069B9EB0009F16F306CAB
:101610004069091AF16708200290306E01900DF1BF
:10162000380A029A0199504604F068FA5FF0030AFA
:10163000706E00900DF1400B52460099584604F030
:101640005DFA0EA8F16F090AC172F16F01730D22E4
:101650000EA9306C443004F081F9F26FF16E306CF9
:10166000443004F07BF916A9306C443004F08BF957
:10167000306C443004F0CEF9306C426916A9F06E3B
:10168000F36F1844FEF7FFFD002802D0DFF8DC06F8
:10169000AAE1641CF06F316CC968B0FBF1F201FB88
:1016A0001200002802D0DFF8C4069DE1706902280C
:1016B0001BDB306CC068B9EB0009F16F306CC0689F
:1016C000091AF16700200100C9B2326CD268914258
:1016D0000BD2F16E0200D2B2895C326C0300DBB235
:1016E0001A4482F82810401CEDE703A802900598E0
:1016F0000190CDF80090069B306CC268306C10F100
:101700002801306C903004F03FFF8246002801D061
:10171000504669E10398814501D0B54864E170699C
:1017200002280DDA306CC0680190306CB83000903F
:10173000306C10F1280B019A0099584604F0DEF93C
:10174000306FF16F084410F8011C491CF06F326CC7
:1017500052698A18904205D2002C03D10020010062
:10176000002005007069012846DB00200122F36F8C
:101770005B1AF76F8F4201D3012700E00027FFB209
:101780003D40376C7F6917F580479F4201D30127A1
:1017900000E00027FFB23D406B435FF0000CBCF55A
:1017A000807F18D28C4501D2012700E00027FFB2CC
:1017B0003A40376F1CEB030E17F80E70B1F1010EB3
:1017C000774501D1012700E00027FFB207FB0200A7
:1017D0001CF1010CE3E7884201D1012700E000275A
:1017E000FFB23D400F0040F2FF1101FB05F10F4039
:1017F000F16FC91BF16703E07D48F5E07C48F3E039
:10180000002C40F09980F16F306C4069091AF16743
:10181000F06F000AB16E0870F06FB16E48707069B9
:101820000128C0F284800021D6F87C9017EB0909CA
:1018300040F20110814502D3B9F5807A01E05FF0F2
:10184000000A306C0068407A032806D0042804D0CF
:10185000062802D007280DD019E0D6F87C8017EBB7
:10186000080818F115085FEA9818F06F1530B8EB02
:1018700090180EE0D6F87C8017EB080818F11D08C8
:101880005FEAD818F06F1D30B8EBD01801E0584867
:10189000AAE0FF2000FB05F010EA08080822316EDC
:1018A000306C443004F05AF80322716E306C4430CE
:1018B00004F054F80222B16E306C443004F04EF85B
:1018C000F26F316F306C443004F048F83900306FFB
:1018D000F26F1044FFF7F2FA22A9306C443004F0A2
:1018E00052F85FF0000B18F10100834507D2316F09
:1018F000306C443004F0ACF81BF1010BF3E7306CB2
:10190000443004F087F8B9EB0A01306C40694118A3
:10191000306F5044FFF7D2FA306C426922A9306F21
:10192000F36F1844FEF7AFFC002802D103E0304803
:101930005AE000200500641C002D02D1DFF82C04C1
:1019400052E0012C01D02A484EE0F06F002814D15B
:101950007069032805D1B06F172802D0DFF81C0B7F
:1019600042E0D6F8A400401CC6F8A400D6F8A400B3
:10197000042805DBDFF8F40336E00020C6F8A400F5
:101980003068D0F8CC00C0F3400000282BD15FF0C5
:1019900008083000FEF790FC4146C9B2884217D2D1
:1019A000306E4146C9B2084410F8010C401C316E3B
:1019B0004246D2B2114401F8010C306E4146C9B220
:1019C000084410F8010C002802D1B8F10108E0E742
:1019D000C1465FFA89F93000FEF76EFC814502D1FD
:1019E000DFF89C0A00E000202FB0BDE8F08F000077
:1019F0000094FFFF10B504002068D0F8B400002860
:101A000018D52068D0F8B0002168D1F8AC10B0FB30
:101A1000F1F1491C0122002902D0521C4908FAE7C1
:101A2000E068401CE0601000C0B2E368984201DA50
:101A3000002002E0200002F069FF10BD2DE9F84F00
:101A400005000E00286A002805D1686A002802D126
:101A5000DFF8980CFBE044F24D18696EB8EB010119
:101A6000E86D4118B14202D2DFF8800CEFE028683F
:101A7000D0F8CC00C0F34000002800F0A880686DCA
:101A8000002802D0A86D002802D1DFF8600CDEE04B
:101A9000D5F88800002824D0D5F88000D5F8881023
:101AA000884202D2DFF8480CD1E0D5F88010D5F892
:101AB0008800091AC5F88010D5F8800000280DD0DC
:101AC000D5F88090686ED5F8881000EB010AD5F83B
:101AD00064B04A46514658460AF078FF0020C5F8DF
:101AE0008800D5F88000B04201D30020AFE0D5F8DF
:101AF0008000002802D0DFF8F80BA8E02800FEF7ED
:101B0000F4FB002803D0DFF8F00B040028E0696E36
:101B1000E86D091AB8EB010847466868102804D038
:101B2000E86BD0F8E401009003E02868D0F8A80042
:101B30000090686A002808D0009B3A00696EA86A85
:101B4000D5F824C0E047040005E03A00696EA86AB1
:101B50002B6A98470400002C02D1DFF8A00B76E036
:101B6000DFF8948B44452BD100212800FEF7B0FB11
:101B70006868102811D02800FEF709FC002801D061
:101B8000404664E0280000F03CF90100002801D044
:101B900008005CE0DFF8680B59E0286890F8CC009A
:101BA000C0070DD5A86803280AD12800FFF722FF37
:101BB0000100002801D0080049E0DFF8440B46E0AE
:101BC000002C01D5200042E0C5F880403EE0D5F869
:101BD0008000B0423AD2D5F88000301A07002800C1
:101BE000FEF783FB002803D0DFF80C0B040019E09C
:101BF000686A00280DD02868D0F8A8303A00686ECE
:101C0000D5F880100144A86AD5F824C0E047040044
:101C100008E03A00686ED5F880100144A86A2B6A83
:101C200098470400002C02D1DFF8D00A0FE0002C06
:101C300001D520000BE0A74202D2DFF8B40A06E08B
:101C4000D5F880002018C5F88000C0E70020BDE866
:101C5000F28F70B50400E069002802D1DFF88C0A29
:101C60003EE0D4F8D000002801D1002038E0D4F8BC
:101C7000D00000281ED0D4F8B800D4F8D0104942C3
:101C800008440600D4F8D0203100A06AE3699847E0
:101C90000500012D01DA280022E0D4F8D000A84286
:101CA00002D2DFF84C0A1BE0D4F8D000401BC4F885
:101CB000D000DCE72068D0F8CC00C0F3400000285A
:101CC00004D0D4F8B000C4F8B80004E0D4F8B000F0
:101CD0000830C4F8B800616C200002F03DFB002021
:101CE00070BD2DE9F0410500102101200CF006F92E
:101CF0000400002C02D1DFF80C0A34E0D5F8CC1037
:101D000001200CF0FBF820602068002805D120009D
:101D10000CF016F9DFF8EC0925E0D5F8CC60D5F821
:101D2000C470D4F8008032003900404603F0E6FE6B
:101D3000D5F8CC006060D5F8C80020720020E060C3
:101D4000E86BD0F8EC01002803D1E86BC0F8EC4157
:101D500008E0E86BD0F8EC11C868002801D0C96829
:101D6000FAE7CC600020BDE8F0810000808EFFFF24
:101D700070B505002C00002C09D0E0680600206832
:101D80000CF0DEF820000CF0DBF83400F3E770BD57
:101D90002DE9FE4F0400606CE16BD1F8FC11884224
:101DA0002DD0606C0090E06BD0F8FC01606400986E
:101DB000E16BC1F8FC01082514F1D40601AF2A003B
:101DC0003100380003F09AFE0827E06B10F5007828
:101DD00014F1D4093A004146484603F08FFE5FF003
:101DE00008090DF1040AE06B10F5007B4A465146E4
:101DF000584603F083FE616C200002F0ADFABDE8A6
:101E0000F78F38B504000025200000F001F832BD3E
:101E10002DE9F04F89B00600F06B90F8E801012839
:101E200014D0F06BD0F8EC01F16BC1F8F001F06B5D
:101E3000D0F8EC0100680C30F16BC1F8F40130000F
:101E4000FFF7A6FF0120F16B81F8E801F06BD0F8F5
:101E5000F001002800F0F480F06BD0F8F071387ACF
:101E6000162805D138680078142801D1012400E033
:101E7000002496F8AC00012802D15FF0010801E0CF
:101E80005FF00008002C09D0F06BD0F8F40139683D
:101E90000C31884202D13000FFF77AFF3000FEF7A4
:101EA00056FA8246BAF1000F01D55046E3E0CDF86C
:101EB00004A0387A142824D10198002808D13000D1
:101EC000FFF7C7FE8346002801D05846D3E0BDE7A0
:101ED000786800903D68D6F8C4B0009A290058464A
:101EE00003F00CFE7868C6F8CC00387AC6F8C80053
:101EF000F06BD0F8F40179680844F16BC1F8F40193
:101F000075E0F06BD0F8F40104907D680C3D049905
:101F100038680C30091A00910098281A039001982B
:101F20000C2804D301980C280FD1002D0DD0002CC3
:101F300002D03000FFF72CFF3000FFF78AFE834607
:101F4000002801D0584696E080E701980C380290AE
:101F500002980399884202D2DDF8089001E0DDF88A
:101F60000C900098002800D1A945062008903868F8
:101F70000790D6F8C4B0089A0799584603F0BEFDFA
:101F80000098000CD6F8C41088710098000AD6F8A2
:101F9000C410C8710098D6F8C41008724846000CE6
:101FA000D6F8C41048724846000AD6F8C4108872A1
:101FB000D6F8C40080F80B90CDF8189004980590DE
:101FC000D6F8C40010F10C0B069A0599584603F098
:101FD00095FD19F10C00C6F8CC00387AC6F8C80097
:101FE000F06BD0F8F4014844F16BC1F8F401F06BE8
:101FF000D0F8F40139687A681144884215D3F8683A
:1020000000280AD0F868F16BC1F8F001F8680068A0
:102010000C30F16BC1F8F40107E00020F16BC1F85E
:10202000F0010020F16BC1F8F4014146C9B2300063
:1020300000F04EF9834600283FF408AF58461AE0F6
:102040003000FFF706FE0400002801D0200012E057
:102050007068102804D10320F16B81F8E80109E0D1
:102060000220F16B81F8E801F06BD0F8E411300048
:10207000FEF72EF9002009B0BDE8F08F10B504007E
:10208000E06BD0F8EC01FFF773FE0020E16BC1F8C4
:10209000EC010020E16BC1F8F001E06BD0F8D80151
:1020A000E16BC1F8F8010020E16B81F80C0220001F
:1020B00002F0E3FE00212000FEF70AF9A06F1628C7
:1020C00008D1206F0078142804D10320E16B81F837
:1020D000E80103E00020E16B81F8E80110BD10B5D4
:1020E00004002000FEF783F9E06BD0F8E411200033
:1020F000FEF7EEF8A06F162808D1206F007814289C
:1021000004D10320E16B81F8E80103E00220E16BD8
:1021100081F8E80110BD2DE9F84F0400D4F8CC5047
:102120002D1FD4F8C4000678D4F8C800162806D0AD
:10213000D4F8C800142802D0DFF8B405C6E0D4F8FB
:10214000C800162803D13000C0B2002805D0E06BCB
:10215000002802D1DFF89805B8E02068D0F8CC005C
:10216000C0F3400000280AD0E06B002807D0E06BE5
:1021700090F8E801012802D1DFF87405A6E0D4F850
:10218000CC0044F20101884202D3DFF864059DE0EF
:10219000D4F8C800162878D12800000CD4F8C41050
:1021A00048702800000AD4F8C4108870D4F8C4001D
:1021B000C5702068D0F8CC00C0F34000002857D08C
:1021C000D4F8CC00D0F58040082802D2DFF81C05F6
:1021D0007CE02F00D4F8C40010F10408D4F8C40047
:1021E00010F10C093A00414648460AF0EFFBD4F8DA
:1021F000CC000830C4F8CC003000C0B2002814D0A5
:10220000E06BD0F8D401000AD4F8C4100871E06B78
:10221000D0F8D401D4F8C4104871E06BD0F8D401E0
:10222000401CE16BC1F8D40107E00020D4F8C410D1
:1022300008710020D4F8C410487103275FF000082B
:10224000D4F8C40010F1060942463900484609F0A6
:10225000B7FD5FF00309D4F8C40010F1010AD4F807
:10226000C40010F1090B4A465146584603F046FC9B
:102270003000C0B2002808D0D4F8CC20D4F8C41064
:102280002000E36BD3F8483498472068D0F8CC009E
:10229000C0F3400000280FD0D4F8C800162803D19E
:1022A0003000C0B2002807D02000FFF71AFD01005F
:1022B00000280AD0080009E00121200000F008F8F9
:1022C0000100002801D0080000E00020BDE8F28FE6
:1022D0002DE9F84F05000E000024D5F8CC70B0466B
:1022E000002C40F08580D5F8C800D5F8B8100870EB
:1022F000D5F8B800431C2868D0F8CC00C0F34002E1
:102300006969286903F0AFF85FF0080915F1D40096
:102310000090D5F8B4B04A460099584603F0EEFB59
:102320003800000AD5F8BC100870D5F8BC0047701A
:10233000686C002812D02800FEF7CFFD82460028E6
:1023400001D050467BE0D5F8CC0007003800000AE9
:10235000D5F8BC100870D5F8BC0047702800FDF710
:102360007AFF814619EB07092868D0F8CC00C0F342
:10237000400000280DD02800FDF7D9FF8246BAF1B1
:10238000000F01D550465AE0CA4502D2DFF860037B
:1023900055E0D5F8D00019EB0000C5F8D000D5F80D
:1023A000B8004844C5F8B800696C280001F0D4FFB3
:1023B0005FF0080B2800FDF77FFF584511D205EBB1
:1023C0000B0090F8D300401C05EB0B0181F8D30003
:1023D00005EB0B0090F8D300002802D1BBF1010BF4
:1023E000E8E72800FDF768FF834501D1244826E08F
:1023F0002868D0F8CC00C0F34000002812D0404636
:10240000C0B200280ED12800FDF7A1FF8246BAF124
:10241000000F01D5504612E05046002802D101219C
:102420008846FFE74046C0B2012807D12800FFF7E1
:1024300010FC8246002801D0504600E00020BDE894
:10244000F28F10B50400E06FD4F8A010884210D3CA
:102450000322A8A1206F801D0BF074FD002808D175
:102460000322206F411C206F09300BF06BFD002808
:1024700001D0012000E0002010BD0000008EFFFF11
:102480008094FFFF0100086F427A086F807A000293
:1024900050EA0240096FC97A084370470100086F8B
:1024A0008279086FC079000250EA0240096F097A08
:1024B0000843704770B50400200000F0A0F8050044
:1024C0002000FFF7EBFF06002000FFF7DBFF010015
:1024D000B54202D25FF0FF300EE0A81B884202D264
:1024E0005FF0FF3008E0E06F11F10C02904202D281
:1024F0005FF0FF3000E0002070BD2DE9F84F0700CD
:102500008846160018F00705D5F10805082D1CD0DF
:102510004146C908B5420AD3002E07D07A5C012390
:10252000A81B83401A437A54761EF5E72EE015EB7C
:102530000808761B002D08D07A5C01232800401E75
:1025400083401A437A546D1EF4E716F00704002CFA
:102550000ED016EB0801C908361B002C08D07A5C97
:102560000123D4F1080083401A437A54641EF4E72F
:10257000B1465FEAD9094FF0FF0A4046C00807EBB1
:10258000000B52464946584609F01AFCBDE8F18F47
:1025900030B402000023B3EBD10F07D2D05CFF2888
:1025A00002D05FF0FF3015E05B1CF4E7002411F06F
:1025B000070084420DD20800C008135C0125D4F145
:1025C000070085402B4202D15FF0FF3002E0641C1F
:1025D000EDE7002030BC704710B403000C20181841
:1025E00000290AD013F0070F01D0012200E00022D9
:1025F0001C00E40854FA82F2101810BC7047010065
:10260000086F4278086F8078000250EA0240096F34
:10261000C9780843704770B504002000FDF727FE15
:10262000E16F814202D2DFF8B40B5EE02000FDF7DB
:102630001EFE05002000FFF7E2FF4519C4F8A05078
:102640002068D0F8CC00C0F34000002844D0206FB0
:102650000079216F4E7956EA00262000FFF72AFF05
:10266000002802D0DFF8740B3FE0E06B00282BD08D
:102670006068102804D0E06BD0F8D801864206D1FB
:102680006068102820D1206F007801281CD0E06BF2
:10269000D0F8D801B04202D2DFF8440B25E0E06B5D
:1026A000D0F8F801401E86420BD1206F0078032835
:1026B00007D02000FFF7A5FB0500002801D0280067
:1026C00013E0DFF8200B10E02000FFF7BAFE01282E
:1026D0000AD1DFF80C0B08E0E06FD4F8A0108842B4
:1026E00002D2DFF8040B00E0002070BD008FFFFF76
:1026F0000094FFFF000000000098FFFF808DFFFFA7
:102700000097FFFF0081FFFF2DE9F0470500EC6B0C
:102710006868102809D0002C07D0D5F8A020296FB0
:102720002800EB6BD3F8483498472868D0F8CC00E1
:10273000C0F34000002824D0E86B002821D0D4F852
:10274000D801401CC4F8D8010021280002F0A8FBE1
:10275000002614F50477701C042808D217F10C0029
:1027600090E80E0087E80E00761C0C37F3E75FF068
:102770000C085FF00009BA464A464146504609F047
:102780001FFBBDE8F08700220023C0E924230022BC
:102790000023C0E92623704730B4047800252502C1
:1027A0000024427800231300002214431D43827842
:1027B00000231B0643EA1223120614431D43C2786A
:1027C00000231B0443EA1243120414431D430279FD
:1027D00000231B0243EA1263120222432B43407977
:1027E00000211043194330BC70472DE9F041804669
:1027F000D8F86000801CFFF7CFFF04000D00D8F868
:102800000000D0F8CC00C0F34020002801D1002007
:1028100026E0D8E92401A94204D801D3A04201D27C
:1028200000201DE0D8E92401061B71EB0507002FED
:1028300005D301D8402E02D35FF0FF3010E0D8E975
:10284000260132000BF0B2FB10F0010011F0000184
:10285000002901D1002802D05FF0FF3000E0002005
:10286000BDE8F0812DE9D0430400206E801CFFF705
:1028700093FF06000F002068D0F8CC00C0F3402082
:10288000002840D0D4E92401B94226D801D3B0426F
:1028900023D2D4E92401B6EB000877EB0109B9F1A2
:1028A000000F08D302D8B8F1400F04D30120002153
:1028B000C4E926010EE0D4E9260142460BF086FB6E
:1028C000C4E92601D4E9260150F0010051F00001CD
:1028D000C4E92601C4E9246715E0D4E92401821B78
:1028E00071EB0703002B0ED801D3402A0BD2D4E999
:1028F0002689012000210BF069FB58EA000059EA03
:102900000101C4E92601BDE8D0832DE9FE4F86B060
:1029100004000D00139E149FDDF85480DDF85890DC
:10292000DDF85CA02000002802D02800002802D199
:10293000DFF8CC0B98E03D2F11D3307816280ED15C
:10294000F07800280BD13079002808D1F07C0028DD
:1029500005D1307D002802D1707D002802D0DFF83B
:10296000A40B81E096F83B000290B7F13D0002997C
:10297000884202D2DFF88C0B76E00298304490F85F
:102980003C000390B7F13C000399884202D2DFF883
:10299000740B69E012980090089B039A02983044E7
:1029A00010F13D010798A847002801D100205BE005
:1029B000B9F11C0F02D2DFF8500B55E01920059039
:1029C0000496C346059A0499584603F097F80320E5
:1029D00088F80D00FE2088F81900FF2088F81A00FA
:1029E00018F11C00019012980090089B08EB090256
:1029F00001A90798A047002802D0DFF86C0333E054
:102A00000198B0EB0800CAF80000DAF800001C38A2
:102A100088F81B00DAF800001938000C88F8160056
:102A200098F8160088F80E00DAF800001938000A45
:102A300088F8170098F8170088F80F00DAF80000F7
:102A4000193888F8180098F8180088F81000DAF893
:102A500000000D38000A88F80B00DAF800000D3885
:102A600088F80C00DFF8CC0B09B0BDE8F08F78B522
:102A700087B0050006A805904FF480400490D5F873
:102A8000B0000390D5F880000290E86D0190D5F871
:102A9000F0000090D5F8EC302868C26C2868816C92
:102AA0002868406CFFF731FF0400DFF8886BB44200
:102AB00007D1069AD5F8B010A86AEB69984730009C
:102AC0000EE0002C0BD10121280001F02BFD0100AC
:102AD000002801D0080003E0DFF85C0B00E02000D4
:102AE00008B070BD3EB50500686E0078A867A86E96
:102AF0000078A96E497851EA0021E967686E431CA5
:102B00002868D0F8CC00C0F34002694601A802F062
:102B1000BDFCA86F162817D0A86F152814D0A86F71
:102B2000142811D0A86F17280ED02868D0F8CC0030
:102B3000C0F34000002804D10A220221280000F03E
:102B4000BDFCDFF898068FE001982969884202D021
:102B5000DFF8880688E0286890F8C9000099884264
:102B600002DADFF878067FE044F24D11286F091A87
:102B7000E86D4118E86F814202D2DFF8600673E029
:102B80002868D0F8CC00C0F34000002848D0286E58
:102B90000078296E4C7854EA0024B5F88400844209
:102BA00023D0286890F8CC00C00713D56868102897
:102BB00010D1002C0ED1A86F16280BD1D5F88000AB
:102BC0000E2807D3E86D407B012803D12800FFF7CA
:102BD0004EFF49E0B5F88400401C844202D1DFF882
:102BE000000641E0DFF8540A3EE0B5F88400844274
:102BF00007D12800FFF7F9FD002802D0DFF83C0AD2
:102C000032E0A86F17280BD16868102808D0A86890
:102C1000012802D16868022802D0DFF8200A23E0E8
:102C2000286C00280AD1E86F002804D0E86F44F22D
:102C30000101884217D3DFF8A40515E0E86F296C7D
:102C40008968884202D2DFF894050DE0686901289E
:102C500009DB286C806810F58240E96F884202D257
:102C6000DFF8780500E000203EBD70B505000024C7
:102C7000002C12D1286C00280FD02800FEF77EFB14
:102C80000600002801D0300012E0E86F44F2010194
:102C9000884202D3DFF844050AE02868D0F8CC0067
:102CA000C0F34000002802D02800FFF7DBFD002021
:102CB00070BDF8B506000F00D6F8A80000284ED168
:102CC000300000F0F4F90400002C01D020004AE0AC
:102CD000300000F01EFA002820D100253068D0F81E
:102CE000CC00C0F3400000280BD0300000F03EF8CC
:102CF000002806D1300000F044F8002801D101205E
:102D00000500002D0AD1300000F0B4FA040014F5DB
:102D1000CB4F11D0002C01D0200024E0300000F077
:102D200061FB040014F5C94F06D1300000F0B2F881
:102D3000002818D1DFF8AC4414F5CD4FC0D014F5FD
:102D4000CB4FBDD0002C01D020000CE0B06F162876
:102D500008D1012F06D13000FFF7D6FC02E0002099
:102D6000C6F8A8000020F2BD0094FFFF0100D1F8D2
:102D70008800D1F88020904201D2012000E000209C
:102D800070472DE9F84F0600F46B0027002C02D1A4
:102D90005FF0FF3057E070680A2802D070680C2896
:102DA00018D194F80C02002803D15FF0FF3007001F
:102DB00048E01420B0670120F0670120316F0870EF
:102DC0000020C6F880000020C6F88800002084F8A3
:102DD0000C0237E014F504700500287810F00500A7
:102DE00005282CD168684078696891F802805FEA0C
:102DF000082858EA00486868C07850EA080818F1BE
:102E00000C0044F20101884202D3DFF87C0A1AE088
:102E10001620B06718F10C00C6F8A00018F10C00DD
:102E2000F067D6F8A090D5F804A0D6F870B04A465E
:102E30005146584602F062FE0020070002E05FF0B3
:102E4000FF3007003800BDE8F28FF8B504000D0030
:102E5000E76B200000F065F9D7F80802D0F50040D4
:102E6000A84201D3002014E00326002E0FD4300026
:102E70000100C9B2200002F013F8D7F80802D0F51B
:102E80000040A84201D3002003E0761EEDE75FF08A
:102E9000FF30F2BD2DE9F04F87B005000026EC6B46
:102EA000002C01D10020FFE0A86F142802D01628C2
:102EB00004D0F8E0012084F80C02F4E0286F0079D7
:102EC000296F497951EA00210291D5F8A0700C3F91
:102ED0000298E96BD1F8D811884202D2DFF8A8092C
:102EE000E2E00299E86BD0F8D801091A0091009845
:102EF000042880F0D88000990C20414304EB0100A5
:102F000010F5047898F80000C00700F17F802800D1
:102F1000FFF797FA012801D1012000E00020C0B29C
:102F2000D8F8001060F34101C8F8001017F10C0048
:102F300044F20101884280F0B680D4F8080248F2D9
:102F40000101884202D3DFF84009ADE0D8F8000063
:102F5000C0F340013800FFF73FFB8146D4F8080278
:102F6000D0F5004048450DD20098002840F09B80E5
:102F700049462800FFF769FF002803D0DFF88805DD
:102F8000060090E0494601200AF0B8FFC8F80400A6
:102F9000D8F80400002803D1DFF80C0C060082E00A
:102FA000C8F8089006200690286F0590D8F804A06D
:102FB000069A0599504602F0A1FD032004900020D6
:102FC0000390D8F8040010F1060A039A04995046B9
:102FD00008F0F6FE5FF0030AD8F80400401C0190E8
:102FE000D8F8040010F1090B52460199584602F036
:102FF00085FDD8F8000050F00100C8F80000D4F8B2
:10300000080219EB0009C4F8089207E00422296FAE
:10301000D8F804000AF096FF002844D1D8F8000040
:10302000C0F3800000283DD1D8F804000C30019096
:103030002800FFF733FA81462800FFF723FA82467B
:10304000CDF810A0286F0C300390019800EB090B0D
:10305000049A0399584602F051FDD8F80000C0F3D5
:103060004000002818D0019800EB070B5246494653
:103070005846FFF742FA39005846FFF789FA002808
:1030800001D1012000E00020C0B2D8F8001060F3A8
:103090008201C8F8001005E0D8F8000050F00400E4
:1030A000C8F80000FFE7300007B0BDE8F08FF8B5C2
:1030B0000400D4F8A000002822D0606F002802D0BD
:1030C000DFF8C40724E0D4F8A000E16F884211D2F1
:1030D000E16FD4F8A000091AE167E56F206FD4F81A
:1030E000A01000EB0106276F2A003100380009F01C
:1030F0006DFC01E00020E0670020C4F8A00006E0BD
:10310000606F002801D0002002E00020E06700206E
:10311000F2BD0100C86F002801D0012000E00020AE
:10312000704738B50500EC6B002C11D0D4F8400284
:1031300000280DD0D4F80812D4F84402091AC4F8B3
:103140000812D4F840020AF0FBFE0020C4F8400246
:1031500031BD2DE9F84F0600F46B3068D0F8CC0093
:10316000C0F34000002801D1002035E0002C01D13F
:10317000002031E0D4F84052D4F84472D4F84882A8
:10318000002D01D1002027E03000FFF7EFFD0128DE
:1031900001D1002020E0B6F8840080451BD144F224
:1031A0004D11706E091AF06D4118B94202D2DFF864
:1031B000D80611E0B946AA46D6F864B04A46514648
:1031C000584602F09BFCC6F880700020C6F88800C4
:1031D0003000FFF7A6FF0020BDE8F28F008EFFFF52
:1031E000809BFFFF809AFFFF808FFFFF2DE9F04754
:1031F0000500EC6B0D26EF6FBF19002C01D10020EC
:1032000036E0A86F162801D0002031E0D4F8400243
:10321000002801D000202BE0D4F80802D0F50040AF
:10322000B84201D2002023E0B5F88400401CC4F865
:103230004802C4F84472D4F8441201200AF05EFE39
:10324000C4F84002D4F84002002801D100200FE069
:10325000B846D5F86490D4F840A242464946504654
:1032600002F04CFCD4F808023818C4F80802002018
:10327000BDE8F08770B505002800FFF76AFF04007D
:10328000002C01D02000ACE02800FCF7E4FF010096
:103290002800FEF7D3FB0600002801D03000A0E094
:1032A0002800FFF71FFC040000282AD02868D0F867
:1032B000CC00C0F34000002821D014F5CF4F1ED021
:1032C00014F5C94F07D12800FFF790FF002840F000
:1032D0008880DFF8684314F5CE4F07D12800FCF74B
:1032E000BAFFE96F4018C5F8880005E00020C5F86E
:1032F00088000020C5F88000DFF83C0B71E020005A
:103300006FE02800FCF7A7FFE96F0818010028000C
:10331000FEF794FB0600002801D0300061E0286829
:10332000D0F8CC00C0F3400000280DD02800FCF7F6
:1033300092FFE96F4018C5F88800D5F88800D5F8E5
:103340008010884203D202E00020C5F880002800E7
:10335000FFF78BFC0400002842D02868D0F8CC008E
:10336000C0F34000002831D014F5E44F02D014F52A
:10337000E34F29D168680B2802D068680D2809D16D
:1033800014F5E34F04D114220221280000F096F82E
:10339000200026E02868D0F8C00000280BD0A869DB
:1033A000401CA861A8692968D1F8C010884202D3DE
:1033B000DFF8880A15E00020C5F888000020C5F86D
:1033C0008000DFF8740A0CE020000AE014F5E34FF7
:1033D00004D114220221280000F070F8200000E03F
:1033E000002070BD38B50400A06F162807D120005A
:1033F000FFF711F90500002801D028005DE0A06F5B
:10340000142821D1E06F012802D0DFF8340A54E0FB
:10341000206F0078012802D0DFF8240A4DE02068F0
:10342000D0F8CC00C0F3400000280DD060680A2816
:103430000AD060680C2807D0E06B002801D17F48D3
:103440003BE0DFF8300C38E0A06F152824D1E06FA6
:10345000022802D0DFF8E8092FE0206F0078022868
:1034600002D1DFF8140C28E0206F0078012806D183
:10347000206F4078002802D1DFF8000C1DE0206F9B
:103480000078012805D1206F4078642801D1002000
:1034900013E0DFF8EC0B10E02068D0F8CC00C0F3AC
:1034A0004000002808D0E06B002805D06068102894
:1034B00002D1200000F0C6FC002032BD70B504002F
:1034C0000D001600002C02D02068002801D10C4805
:1034D00015E01520C4F8C8000220C4F8CC00D4F8C8
:1034E000C4000570D4F8C400467001212000FEF726
:1034F000EFFE0100002801D0080000E0002070BDB0
:10350000008FFFFF0087FFFF0096FFFF2DE9F84FB8
:103510000600DFF8647CF06CD0F8008098F80A00B0
:1035200005280BD098F80A00062807D098F80A005A
:10353000082803D098F80A000B2804D17068401CB2
:103540007060002074E0306890F8CC00C00708D4A8
:10355000D6F8E000002804D17068401C706000209C
:1035600066E0306890F8CC00C00707D53000FCF763
:103570005EFE002802D1DFF8840C59E05FF00709F5
:103580003000FCF754FE0400002C2DD060680500CC
:1035900043F6FD70B0EB0900A84202D2DFF8600CE0
:1035A00046E02800000CD6F8C41001F809002800F5
:1035B000000AD6F8C41049444870D6F8C4004844FC
:1035C000857019F103090095D4F808A0D6F8C40055
:1035D00000EB090B009A5146584602F08FFA15EBA2
:1035E0000909D4F83041CFE7B9F10700000CD6F84B
:1035F000C4100871B9F10700000AD6F8C410487168
:103600004846C01FD6F8C4108871C6F8CC90162062
:10361000C6F8C8000B20D6F8C41008707068401CAB
:1036200070603000FEF777FD010008000029FFD12F
:10363000BDE8F28F8095FFFF8098FFFF0099FFFFA4
:103640002DE9F0410400206890F8CC00C00722D595
:10365000606900281FD02000FCF709FED4F8A010F4
:10366000C01C814217D1A06F162814D1206F00789A
:103670000B2810D12000FCF7FAFD032281A1236F53
:1036800018440AF05FFC002805D14020A16B486671
:10369000DFF8B40CF4E0A06F162807D00A2202214C
:1036A0002000FFF70BFFDFF8A40CE9E0206F0078A3
:1036B0000B2807D12000FCF7DAFDD4F8A010801DFC
:1036C000814207D2322202212000FFF7F7FEDFF805
:1036D000800CD5E02000FCF7CAFD0600206F3044C6
:1036E0004078216F31448F7857EA0027206F805D42
:1036F000002808D12000FCF7BAFDD4F8A010C019AA
:10370000C01C814207D0322202212000FFF7D6FEE2
:10371000DFF83C0CB4E0A06B006E002807D0A06B73
:10372000006E0BF01DFFA06B006E0AF009FC4FF459
:103730009A7101200AF0E2FBA16B0866A06B006E93
:10374000002807D1502202212000FFF7B7FEDFF842
:10375000580495E0A06B006E0BF0F6FEF61CD4F852
:10376000A00086425AD2D4F8A000F11C884207D2A9
:10377000322202212000FFF7A1FEDFF8D40B7FE008
:10378000206F805D002807D0322202212000FFF741
:1037900095FEDFF8BC0B73E0206F30444078216F5A
:1037A0003144897851EA00210F00F61C802F04D3A0
:1037B000D4F8A000B919884207D232220221200091
:1037C000FFF77CFEDFF8880B5AE03A00206F00EB31
:1037D0000601A06B006E0BF0D6F90500280000284A
:1037E0000AD0DFF8701B401A08D040F25221401A6C
:1037F00002D0AE3805D007E0BE19B0E75FF0500840
:1038000004E05FF02B0801E05FF02A084246D2B2E4
:1038100002212000FFF752FE280031E0206890F8D6
:10382000CC00C0072BD4A068012828D1606B006EA3
:10383000002807D1312202212000FFF73FFEDFF8E8
:10384000100B1DE0606B006E4068A16B096E49684B
:1038500088420CD1606B006E4268A06B006E81687C
:10386000606B006E80680AF06DFB002807D0312283
:1038700002212000FFF722FEDFF8D40A00E000203A
:10388000BDE8F081000000000094FFFF2DE9F04F3B
:1038900085B00700F86CD0F80080F86BD0F8C40150
:1038A000032803D0F86BD0F8C45104E03868D0F88E
:1038B000CC00C0F381055FF0000998F80A000528E4
:1038C0000BD098F80A00062807D098F80A000828B4
:1038D00003D098F80A000B2804D17868401C78605F
:1038E000002001E1386890F8CC00C00708D598F8AE
:1038F0000A00072804D17868401C78600020F3E0B3
:10390000386890F8CC00C00709D5002D07D1802079
:10391000B96B48667868401C78600020E4E00121BB
:103920003800FFF7C6F90600002801D03000DBE0C0
:103930003800FFF785FE040000280BD014F5E94F8E
:1039400003D1012D01D1002004007868401C78606B
:103950002000C9E0002D00F0C380F86BD0F8CC0146
:10396000002806D0F86BD0F8CC61F86BD0F8D0A165
:1039700004E03868C66E3868D0F870A0CDF81090B2
:103980003868806B03903868406B0290B86B643085
:103990000190D7F8E40000903868436E5246310039
:1039A000B86B006E0BF059FD0400002CB86B006E74
:1039B00010F1BC0B022158460BF087FE002814D0F2
:1039C000DBE90001FCF718FC0178380001F0BDFCD0
:1039D00000280AD0B86B406E50F48030B96B48664E
:1039E000002C02D1DFF868090400B86B10F1640301
:1039F0003868D0F8CC2092F0010212F00102414662
:103A0000B86B006E01F0D7FC002804D0002C02D166
:103A1000DFF83C090400012D07D114F51C5F02D02A
:103A200014F5F44F01D100200400002E04D1022D22
:103A300002D1DFF8880C0400002C51D0B86B406E26
:103A4000C00502D55FF0310B44E0B86B90F864001C
:103A5000400702D55FF02A0B3CE0B86B406E0005D2
:103A600002D55FF02B0B35E0B86B406EC00402D579
:103A70005FF02B0B2EE0B86B406E800402D55FF038
:103A80002B0B27E0B86B406E000402D55FF02B0BC8
:103A900020E0B86B406EC00302D55FF02B0B19E03D
:103AA000B86B90F86400C00702D55FF02D0B11E0F1
:103AB000B86B90F86400800702D55FF02C0B09E02A
:103AC000B86B90F86400000702D55FF0300B01E09E
:103AD0005FF02E0B5A46D2B202213800FFF7EEFCFF
:103AE0007868401C7860200005B0BDE8F08F10B504
:103AF00004001420C4F8C8000120C4F8CC00012040
:103B0000D4F8C41008706068401C60602000FEF7A4
:103B100002FB0100002801D0080000E0002010BDD9
:103B20002DE9F041040001212000FFF7C2F8050053
:103B3000002801D0280035E0A06F142807D00A2201
:103B400002212000FFF7BAFCDFF800082AE0E06C51
:103B50002064A06BE0622068D0F8CC00C0F3400085
:103B600000280ED02000FEF70EFEB4F88400401CA2
:103B7000A4F88400B4F8840000280BD1DFF8840B8B
:103B800010E008260027D4F860803A003100404653
:103B900008F016F9E16C200000F018FC6068401C89
:103BA00060600020BDE8F0810081FFFF4269032AC8
:103BB00005DA0FF2A902C36BC3F8482412E04A7A6F
:103BC000072A05D10FF2D502C36BC3F8482409E0D8
:103BD0004A7A072A05D00FF2AD02C36BC3F8482416
:103BE00000E0FFE7704710B50400E06B10F51470BB
:103BF00002F01BFEE06B10F52A7003F0CCFC0021F4
:103C0000E06B10F5417005F07CFA0121E06B10F5D6
:103C10005C7006F0D4FC10BD70B504000D001600F9
:103C200032002900E06B10F5147003F0FFFA320047
:103C30002900E06B10F52A7005F024F93200290004
:103C4000E06B10F5417006F052FB32002900E06B8A
:103C500010F55C7007F031FE70BD000070B5040017
:103C60000D00160032002900E06B10F5147003F00F
:103C7000DDFA32002900E06B10F52A7005F002F938
:103C800070BD000070B504000D0016003200290060
:103C9000E06B10F5417006F02AFB70BD70B50400B2
:103CA0000D00160032002900E06B10F55C7007F083
:103CB00004FE70BD2DE9F043B9B00700884614003A
:103CC0005FF00C09BD6B002D01D1786B050023A8B6
:103CD00002F08EFD0CA803F041FCF86B10F5147196
:103CE00023A802F099FDF86B10F52A710CA803F0D7
:103CF00049FC002C02D1DFF82C6A01E0DFF8286AC9
:103D000003A923A803F0E7FA07A90CA805F00FF907
:103D1000CDF80890CDF804802420009003AB320049
:103D2000302115F13000D7F83CC0DCF854C4E0472E
:103D300023A802F068FD0CA803F01BFC242103A8B3
:103D400001F034FF39B0BDE8F0832DE9F843A6B0A7
:103D50000700884614005FF00C09BD6B002D01D1EF
:103D6000786B05000BA805F0AFF9F86B10F5417101
:103D70000BA805F0BDF9002C02D1DFF8A86901E01D
:103D8000DFF8A46903A90BA806F006FBCDF808909C
:103D9000CDF804802020009003AB3200302115F1D3
:103DA0003000D7F83CC0DCF854C4E0470BA805F05D
:103DB00096F9202103A801F0F9FE27B0BDE8F083B1
:103DC0002DE9F843C6B00700884614005FF00C09DF
:103DD000BD6B002D01D1786B050010A806F0D2FB59
:103DE000F86B10F55C7110A806F0E0FB002C02D116
:103DF000DFF8306901E0DFF8306903A910A807F0A7
:103E0000BFFDCDF80890CDF804803020009003ABC2
:103E10003200302115F13000D7F83CC0DCF854C432
:103E2000E04710A806F0B9FB302103A801F0BEFE60
:103E300047B0BDE8F0830000809AFFFF808EFFFF4F
:103E4000008EFFFF10B50400200001F056F8E06B73
:103E50000AF076F80020E063A06C002805D0A06C82
:103E600000F0F2FFA06C0AF06BF8E06CA064002098
:103E7000E06410BD38B50500E86BD0F8C048A8680C
:103E8000012803D10220A8600020E860686B0028A8
:103E900009D0686B806FA96B8867686B01F07BF84D
:103EA000686B0AF04DF8A86B68630020A863286867
:103EB000406A00280CD0686BC068002808D0002C2D
:103EC00006D1696B2868806A2A68526A9047002880
:103ED0002868D0F8CC00C0F34000002809D0E86B77
:103EE000D0F8EC01002804D000212800FCF7F0F9FC
:103EF00002E02800FFF7A6FF6868401C686031BD3B
:103F00002DE9F0470400E16C200000F025FA20685C
:103F100090F8CC2012F00102D4F8C400011D20005A
:103F2000E36BD3F8503498476069002801D1242509
:103F300000E00C25C4F8F8502E00D4F8C400071D8A
:103F400014F1FC0832003900404601F0D7FD281D6D
:103F5000C4F8CC001620C4F8C8001420D4F8C4104B
:103F60000870E06BD0F8C00800280ED0206890F8E8
:103F7000CC00C00701D40F206060206890F8CC000E
:103F8000C00705D50A20606002E06068401C6060E0
:103F90002068D0F8CC00C0F34000002839D0606C15
:103FA000E16BC1F8FC01082614F1D407E06B10F5B1
:103FB000007832003900404601F0A0FD5FF00608AD
:103FC0005FF0000914F1D60A4A464146504607F010
:103FD000F7FE02210800C0B2002813D00800C0B2CA
:103FE000204490F8D300401C0A00D2B2224482F848
:103FF000D3000800C0B2204490F8D300002801D1BB
:10400000491EE7E70800C0B200280BD1DFF8F4062C
:104010002EE00826002714F1D4083A00310040466B
:1040200007F0CEFEE06C6064A06B20632068D0F8DF
:10403000CC00C0F34000002802D02000FEF74FF86B
:104040002000FEF768F80600002801D030000FE0DD
:104050002068D0F8CC00C0F34000002807D0200032
:10406000FDF7D6FE0600002801D0300000E0002059
:10407000BDE8F087809BFFFF8088FFFF8087FFFF00
:104080008099FFFF2DE9FE430400206890F8CC20C2
:1040900012F0010292F0010269462000E36BD3F8AE
:1040A0005034984701212000FEF703FE0500002848
:1040B00001D028005EE0A06F162806D00A22022157
:1040C0002000FFF7FBF9A14854E00C26206F007890
:1040D000142807D12000FCF7CAF8D4F8A010301833
:1040E000814207D0322202212000FFF7E7F9DFF8F2
:1040F00098063FE02000FCF7BAF832006946236FCB
:104100001844FCF7C0F8002807D032220221200012
:10411000FFF7D4F9DFF870062CE0C4F8F860370038
:10412000E84614F584793A004146484601F0E6FC39
:10413000E06BD0F8C00800280ED0206890F8CC00C2
:10414000C00701D40A206060206890F8CC00C00746
:1041500005D50F20606002E06068401C6060206848
:10416000D0F8CC00C0F34000002802D02000FDF7BA
:1041700085FF0020BDE8FE83808FFFFFF8B50400B7
:1041800040F6D8050026270032002900380007F045
:1041900017FE14F5147002F02BFB14F52A7003F0CF
:1041A000DDF914F5147002F040FB14F52A7003F0E9
:1041B000F2F914F5417004F087FF002114F5417005
:1041C00004F09FFF14F55C7006F0DCF9012114F592
:1041D0005C7006F0F4F9DFF8BC06C4F8480420006F
:1041E000FCF71EF8201D07F07DFE14F1800008F09A
:1041F000FEF90320C4F8C401F1BD0000808AFFFF6E
:10420000008BFFFFF8B50400D02500262700320000
:104210002900380007F0D4FD14F1500001F033FDFF
:1042200014F1900001F02FFD14F1380001F083FA31
:1042300014F1440001F07FFAF1BDF8B504007C25CB
:104240000026270032002900380007F0B9FDF1BD33
:1042500010B50400E06C002802D0E06C00F0F4FD22
:10426000A06B002802D0A06B00F095FEE06B002848
:1042700002D0200000F041FEE06C002804D1D021E3
:10428000012009F03BFEE064A06B002804D17C21F2
:10429000012009F033FEA063E06B002805D140F651
:1042A000D801012009F02AFEE063E06B002805D068
:1042B000E06C002802D0A06B002811D1E06B09F05F
:1042C0003FFEE06C09F03CFEA06B09F039FE0020D7
:1042D000E0630020E0640020A063DFF8280626E009
:1042E000A06BFFF7AAFFE06CFFF78CFFE06BFFF716
:1042F00045FF2068D0F8CC00C0F34000002815D05E
:10430000606CE16BC1F8FC01206890F8CC00C0073C
:1043100004D40020E16B81F8E80103E00220E16BA6
:1043200081F8E80100212000FBF7D2FF002010BD3A
:1043300010B40400DFF8D00510BC704710B40400BE
:10434000DFF8C40510BC7047808BFFFF0089FFFFBA
:104350000086FFFF80D7FFFF0268D2F8CC20C2F3AF
:104360004002002A0FD0D0F8B820D21CC0F8B420E8
:10437000D0F8B8200B32C0F8BC20D0F8B8200D32ED
:10438000C0F8C0200EE0D0F8B820083AC0F8B42039
:10439000D0F8B820D21CC0F8BC20D0F8B820521DEC
:1043A000C0F8C02000290CD04269022A09DBD0F8ED
:1043B000C020CB681A440B695B421A44C0F8C42081
:1043C00003E0D0F8C020C0F8C42070470268D2F8DB
:1043D000CC20C2F34002002A09D0426ED21C0266F1
:1043E000426E0B328266426E0D32C26608E0426E49
:1043F000083A0266426ED21C8266426E521DC26646
:1044000000290AD04269022A07DBC26ECB681A442F
:104410000B695B421A44026701E0C26E0267704793
:10442000F8B504004FF48C750026270032002900EF
:10443000380007F0C5FCF1BD10B504002068D0F8C5
:10444000CC00C0F34000002806D0D4F8B000C4F877
:10445000B800E06D606607E0D4F8B0000830C4F83A
:10446000B800E06D0830606600212000FFF774FF9F
:1044700000212000FFF7AAFF10BD70B504000D0059
:1044800025600020C4F8B00044F24D163100012030
:1044900009F034FDE065E06D002802D1DFF86464C6
:1044A00017E03100012009F029FDC4F8B000D4F86C
:1044B000B000002802D1DFF84C640AE02000FFF7CA
:1044C000BBFF2000FFF7C4FE0600002801D100203A
:1044D00027E0E06D09F034FDD4F8B00009F030FDBC
:1044E000002020600020E0650020C4F8B00000201B
:1044F0006066002020660020A0660020E0660020A4
:1045000020670020C4F8B8000020C4F8B4000020E0
:10451000C4F8BC000020C4F8C0000020C4F8C400E7
:10452000300070BD2DE9F84F05000C0000206860D8
:1045300000212800FBF7CCFE0020A8600020E860E6
:104540000020C5F8F8000C26002715F1FC083A00F9
:104550003100404607F034FC5FF00C085FF00009C2
:1045600015F5847A4A464146504607F029FC00205A
:10457000C5F8F400002068672800FFF75DFF002001
:10458000A8670020E8670020C5F888000020A5F88B
:1045900084002800FEF7F7F80020C5F8A0000020EE
:1045A000C5F8A4000020C5F8A8000020C5F8C80080
:1045B0000020C5F8CC000020C5F8D00095F9DE0039
:1045C000002802D0002085F8DE000826002715F11B
:1045D000D4083A003100404607F0F2FB002028647E
:1045E000002068640020E8620020286344F24D182F
:1045F000C1465FF0000AD5F8B0B052464946584669
:1046000007F0DEFB002C09D10020C5F88000002651
:10461000EF6D32004146380007F0D2FBA86C00284D
:1046200007D0A86C00F010FCA86C09F089FC0020F1
:10463000A864686B002807D0686B00F0ACFC686B5E
:1046400009F07EFC002068630020C5F8E800002C1B
:1046500009D1D5F8EC0009F073FC0020C5F8EC0096
:104660000020C5F8F0002800FFF7F2FD0100002847
:1046700001D0080000E00020BDE8F28FD0F8CC2087
:1046800061F30002C0F8CC207047D0F8CC2061F371
:104690004102C0F8CC207047D0F8CC2061F38302EF
:1046A000C0F8CC2070478161C261704710B4019C92
:1046B0008162C2610362446210BC70478089FFFF5F
:1046C00070B504000D0016000C21012009F016FC45
:1046D0000100002902D1DFF82C0210E00D604E60CD
:1046E000002088602068002801D1216006E022684F
:1046F0009068002801D09268FAE79160002070BDB0
:10470000000000008094FFFF70B504000D0016004B
:104710003200290014F16800FFF7D2FF70BDC166B6
:104720000267704734D0040844D004082DE9F843E8
:1047300004000D0016001F00DDF820803200290063
:1047400014F17C000BF09DFC8146002808D1424604
:10475000390014F188000BF094FC8146002809D040
:1047600014F17C000BF035F914F188000BF031F9ED
:10477000484600E00020BDE8F283416F002901D1E6
:10478000002000E0C06F70478081FFFF2DE9F041FD
:10479000050000266C6C002C03D12800FBF75BFDA4
:1047A00024E014F15000FBF732FD801E06D0001FFC
:1047B000022801D9001F11D1A76812E014F150009E
:1047C000FBF71CFD80466069861918EB060637006A
:1047D0006869022801DB18EB070702E0DFF8480AE6
:1047E00004E02800FBF737FD3F183800BDE8F081F2
:1047F0000100086890F8CC00C00707D44868012879
:1048000002D04868022801D100201FE0C86B0028B0
:1048100004D0C86BB0F84C02002802D1B1F8DC001B
:1048200014E0B1F8DC00002803D1C86BB0F84C02EA
:104830000CE0B1F8DC00CA6BB2F84C22904202D214
:10484000B1F8DC0002E0C86BB0F84C02704770B5FC
:1048500004004FF480452000FFF7CAFF002816D05F
:104860002000FFF7C5FF06002000FFF78FFF0100C3
:104870000A00002901D508000AE0B24202D3DFF89D
:10488000AC0905E0B01AA84201D2B61A35002800DA
:1048900070BD0000193C000838B504001A4D002C0A
:1048A00002D02068002802D1DFF8D80412E0206886
:1048B00090F8CC00C00703D4200010F06FF805007A
:1048C000206890F8CC00C00703D5200012F066FBEA
:1048D0000500280032BD38B505000024002D02D0A7
:1048E0002868002802D1DFF89C0409E068681028D5
:1048F00005D02800FFF7D0FF0400002CF6D02000E0
:1049000032BD00000081FFFF808FFFFF10B5040063
:104910000420C4F8CC001620C4F8C8000020D4F845
:10492000C41008702000FDF7F6FB0100002801D03C
:10493000080000E0002010BD38B504002000FFF79B
:1049400087FC0500002801D0280024E02068D0F86A
:10495000CC00C0F34000002810D0A06803280DD17F
:10496000206890F8CC00C00704D50120E16BC1F8A5
:10497000D40103E00120E16BC1F8D80100206060A0
:104980000120A0602000FFF7A6FF0100002801D051
:10499000080000E0002032BD38B50400DFF88C5874
:1049A000002C02D02068002802D1DFF8D80330E0C4
:1049B000206890F8CC00C00713D56068102802D09A
:1049C000DFF8C00325E00320A060D4F8D000002861
:1049D00003D02000FDF73DF91BE02000FFF796FF14
:1049E00017E0A06801280DD06068102802D0DFF819
:1049F00094030EE02000FFF79FFF0100080000294C
:104A000007D006E02000FFF766FF0100080000293C
:104A1000FFD132BDF8B504002000FBF74DFC0500C6
:104A20006068102809D1A068032806D02068D0F853
:104A3000CC00C0F3C020002801D100201FE0D5F138
:104A400008022068284410F1B801206E284409F0BB
:104A500079FA0600D5F108022068284410F1B8015F
:104A600004EB0500D43009F06DFA0700012E03DADB
:104A7000012F01DA002002E02000FFF78DFFF2BDD8
:104A80002DE9F84F05000E001700002D02D0286810
:104A9000002801D199482FE12868D0F8CC00C0F354
:104AA0004000002817D02800FDF7D3F881460028E1
:104AB00001D0484620E1E86B00280CD0E86B90F864
:104AC000E801012807D12800FDF7A2F98146002856
:104AD00001D0484610E12800FFF79CFF0400DFF8F2
:104AE000288A444503D0002C01D0200004E16868E6
:104AF000102809D02800FFF7EEFE0400444503D03B
:104B0000002C01D02000F7E0686F002840F0D3802F
:104B1000A86D00280BD0286DA96D884710F1010FF2
:104B200005D12868D0F8A8102800FBF7D1FB012197
:104B30002800FEF7BEF80400002806D014F5E54F63
:104B400001D10020D8E02000D6E0E86F002810D185
:104B5000A86F17280DD101212800FEF7AAF804003C
:104B6000002806D014F5E54F01D10020C4E0200054
:104B7000C2E0A86F162862D1286890F8CC00C00760
:104B800014D4286F0078002806D12800FBF76FFBAB
:104B9000D5F8A010814209D02868D0F8CC00C0F325
:104BA00040000028B0D1DFF86409A5E0286890F83B
:104BB000CC00C0070DD5286F0078012809D02868DF
:104BC000D0F8CC00C0F3400000289DD1DFF83C09AC
:104BD00092E02868D0F8CC00C0F3C02000281DD097
:104BE000D5F8F400002806D12868D0F8CC00C0F32E
:104BF0000110002812D0286890F8CC0010F00300B3
:104C0000022801D10320A8602800FFF795FE0400C8
:104C1000444513D0002C11D020006DE068690128B4
:104C200009DB642201212800FEF748FC040000286B
:104C300004D0200060E0DFF8F0055DE064E7A868DC
:104C4000032810D12868D0F8B40000280BD4E868F5
:104C5000401CE8602868D0F8B400E968884202DAAD
:104C6000DFF8A80848E0A86F152802D1DFF8A008EF
:104C700042E0A86F172802D0DFF890083CE0286FC8
:104C800068676868102803D100212800FBF720FB23
:104C9000286890F8CC00C0077FF536AFA8680328D5
:104CA0007FF432AF2800FCF7A5FE040000283FF493
:104CB0002BAF200020E0E86F874201D2B84601E028
:104CC000D5F87C80C146D5F874A0B3464A46514613
:104CD000584600F013FFE86FB0EB0800E867E86F94
:104CE000002805D1002068670020C5F8A80002E070
:104CF000686F404468674046BDE8F28F008FFFFF51
:104D00002DE9F84F04000D0016002000FFF79FFD6D
:104D100080464746B8F1000F01D540462FE0B74224
:104D200009D22068D0F8CC00C0F34000002801D0A0
:104D3000144824E03E00D4F8D000002807D020001A
:104D4000FCF787FF0100002818D0080017E0C4F81E
:104D5000CC601720C4F8C800B146AA46D4F8C4B045
:104D60004A465146584600F0C9FE01212000FDF791
:104D7000AFFA0100002801D0080000E03000BDE8D3
:104D8000F28F0000008FFFFFF8B504000D00160041
:104D90002068D0F8CC00C0F3802000280AD0022E72
:104DA00008D36069022805DA606C5030FBF72FFAEF
:104DB000022805D0320029002000FFF7A1FF1DE0E6
:104DC00094F9DE0000280CD1012229002000FFF711
:104DD00097FF0700012801DA38000FE0012084F86E
:104DE000DE00721E691C2000FFF78AFF0100080028
:104DF000012903DB002184F8DE10401CF2BDF8B568
:104E000004000D001600002C02D02068002802D1FA
:104E1000DFF8000717E02000FFF7FCFD070000287F
:104E200001D038000FE06068102807D02000FFF79D
:104E300052FD0700002801D0380004E032002900AC
:104E40002000FFF7A1FFF2BD10B50400002C13D025
:104E500014F1500000F022FF14F1900000F01EFF4A
:104E600014F1380000F072FC14F1440000F06EFC04
:104E7000D021200000F09AFE10BD70B50500EC6B4B
:104E8000002C0CD02800FEF74CF90026042E06D288
:104E90003100C9B2280000F003F8761CF6E770BDB7
:104EA0002DE9F04704000D00E66B2900C9B20C2083
:104EB000414306EB010010F504772800C0B2042836
:104EC00019DA3878C00716D5D6F80812B868091A62
:104ED000C6F80812B968786800F068FE786809F0CA
:104EE0002FF85FF00C085FF00009BA464A464146C9
:104EF000504606F065FFBDE8F087F8B50600F56B93
:104F0000002D47D015F5147001F07DFC15F52A70C1
:104F100002F02FFB15F5417004F0E1F815F55C7017
:104F200005F03BFB281D07F09FFA15F1800007F004
:104F3000A2FBD5F8B40109F003F8D5F8B8010028B0
:104F400009D0D5F8BC11D5F8B80100F02FFED5F87E
:104F5000B80108F0F5FFD5F8C80100280AD0D5F847
:104F6000C841002C06D0A0680700200008F0E8FF28
:104F70003C00F6E7D5F8DC0108F0E2FFD5F8EC01DB
:104F8000FCF7F6FE3000FFF778FF40F6D801280066
:104F900000F00CFEF1BD10B50400002C0FD0206E07
:104FA000002805D0206E0AF0DBFA206E08F0C8FF5A
:104FB000A06E08F0C5FF7C21200000F0F7FD10BDB9
:104FC00010B50400002C59D0D4F8B000002809D046
:104FD00044F24D11D4F8B00000F0E8FDD4F8B00070
:104FE00008F0AEFFE06D002807D044F24D11E06DEF
:104FF00000F0DCFDE06D08F0A3FFA06C002805D0F8
:10500000A06CFFF721FFA06C08F09AFFE06B00286E
:1050100011D02000FFF771FFE06CFFF715FFA06BC8
:10502000FFF7B9FFE06B08F08BFFE06C08F088FF3A
:10503000A06B08F085FF606B002805D0606BFFF760
:10504000AAFF606B08F07CFFD4F8E40000280CD0C5
:10505000D4F8E40000F028FD0100D4F8E40000F0EA
:10506000A5FDD4F8E40008F06BFFD4F8EC0008F0DC
:1050700067FF4FF48C71200000F098FD10BDF8B56B
:105080000400D0250026270032002900380006F051
:1050900097FEF1BD2DE9FC4FC3B005000C001600D2
:1050A00021002800FFF7EAFA31002800FFF7EDFAA7
:1050B000002C0CD10220D5F8CC1060F38301C5F888
:1050C000CC10D5F8CC0050F40050C5F8CC00D5F881
:1050D000CC0050F04000C5F8CC00D5F8CC0050F022
:1050E0008000C5F8CC00D5F8CC0050F48070C5F82D
:1050F000CC00D5F8CC0050F48060C5F8CC00DFF8C7
:1051000018046864DFF81404A864D5F8CC0050F4DF
:105110000070C5F8CC00D5F8CC0050F40040C5F8BC
:10512000CC004FF47A70C5F8AC004EF66020C5F89C
:10513000B0001020C5F8B40002275FF0000815F198
:10514000B80942463900484606F03AFE5FF00609C3
:105150004FF0FF0A15F1BA0B52464946584606F081
:105160002FFE012C19D103A8DFF8B4134FF480727D
:1051700000F0D4FCDFF8AC0300788DF804000120C7
:10518000009001AB4FF4807203A92800FFF7CEFA1C
:105190000290002801D0029843E0449802281BD1D5
:1051A000032085F8CA00032085F8CB00032085F88A
:1051B000C800032085F8C900DFF86C03E860A86028
:1051C00068602860DFF864036866DFF86403686776
:1051D000DFF86003A86723E0032085F8CA000120F8
:1051E00085F8CB00032085F8C800032085F8C900A6
:1051F000012E02D1022085F8CB0011F099FFE86062
:10520000A86068602860DFF830036866DFF82C0368
:10521000686712F006F8A8674FF48060C5F8C4000C
:10522000002045B0BDE8F08F0094FFFF808FFFFFA6
:1052300010B50400012120000AF047FA002801D02F
:10524000012008E0042120000AF03FFA002801D0E4
:10525000032000E0002010BD01000800C0B20128BA
:1052600004D0022804D0042802D003E0012002E088
:10527000032000E00020704701000800C0B20128B0
:1052800002D0032802D003E0012002E0042000E065
:105290000020704702000800C0B2012802D0042894
:1052A00002D003E0107802E0507800E00020704760
:1052B0000B00DBB2012B02D0042B05D009E00378F0
:1052C000002B00D1027004E04378002B00D1427023
:1052D000FFE7704701704170704701000800C0B2DD
:1052E000012809D014D303280AD007D305280BD0EE
:1052F00008D306280AD00BE003200AE0042008E0C7
:10530000052006E0062004E0072002E0082000E077
:10531000002070470100032909D014D305290AD0C1
:1053200007D307290BD008D308290AD00BE00120A6
:105330000AE0022008E0032006E0042004E0052043
:1053400002E0062000E00020704710B40200106860
:10535000806F002802D15FF0FF300FE01068836F8C
:105360001878002808D018780C00E4B2A04201D1C7
:10537000002003E05B1CF3E75FF0FF3010BC7047D8
:1053800010B402001068406F002802D15FF0FF30B7
:105390000FE01068436F1868002808D018680C00E8
:1053A000E4B2A04201D1002003E01B1DF3E75FF04F
:1053B000FF3010BC70472DE9F84F04000D001600B7
:1053C0001F005FF000085FF00009012E20D1A87ACD
:1053D00000281AD0022812D00ED304280FD00ED3E2
:1053E000062812D011D308280FD005D30A2809D0D7
:1053F00008D30B2809D00DE0202081460AE0802048
:10540000814607E00820814604E00020814601E053
:10541000802081464946200009F0ACFC002806D0D7
:10542000386850F4006038605FF0FF308046012E2D
:1054300004D1DFF80CA15FF0080B03E0DFF804A152
:105440005FF0080B5A465146200009F0BBFC0028CB
:1054500006D0386850F4805038605FF0FF308046E6
:105460004046BDE8F28F10B4012A0BD1022900D1C9
:10547000491ED0F1FF04FE3C1C70D1F1FF04FF3C3B
:105480005C7001E01870597010BC704730B4012A8C
:105490000FD140F201151C782D1B05605C78D4F506
:1054A00080740C600C68012C07D10C68641C0C60C3
:1054B00003E01C7804605C780C6030BC704702002C
:1054C0005069032801D020481DE00800012806D0BB
:1054D000022806D004280ED0052807D010E01A486C
:1054E00011E01A48D36BC3F84C040BE01848D36B97
:1054F000C3F84C0406E01748D36BC3F84C0401E032
:10550000114800E0002070470095FFFF0089FFFF71
:105510000097FFFF008FFFFF314300083D43000865
:105520006053040827BE00083C00002034D1040862
:10553000480000205400002024D104082800002046
:10554000B8D60408C4D60408009AFFFF690C000806
:10555000E50C0008B90C00082DE9F043ADB00500DA
:105560000E00170098465FF0000917A801F040F9F7
:10557000684601F0F3FF17A801F057F9040000286E
:1055800037D14022E86B00F25C4117A801F04EFED3
:10559000040000282DD14246390017A801F046FE2C
:1055A0000400002825D1310017A801F094FE040062
:1055B00000281ED1684601F0EEFF0400002818D133
:1055C0004022E86B00F25C41684603F05BFC04009B
:1055D00000280ED142463900684603F053FC04000F
:1055E000002806D116F11001684603F0A0FC040063
:1055F000002817A801F007F9684601F0BAFF002C4F
:1056000004D0502202212800FDF758FF20002DB0C1
:10561000BDE8F0832DE9F84F84B006000F009046F6
:105620009946DDF838A00F9D002003902800C0B2F5
:1056300000F05AF88346584600F02EFAC8F80000E9
:10564000684600F078F800225946684600F09EF857
:10565000040000281DD1684600F0BEF804000028B0
:1056600017D14022F06B00F25C41684600F0C3F8AD
:10567000040000280DD152464946684600F0BBF8A8
:105680000400002805D13900684600F0C6F804007F
:105690000028684600F05AF8002C04D0502202215D
:1056A0003000FDF70BFF200005B0BDE8F08F30B4EF
:1056B000002513E050F8042BD30744BFA9F10103E0
:1056C0009A18091F042942F8045BFAD213468C0782
:1056D00044BF15809B1CC90748BF1D7050F8041BB0
:1056E0000029E7D130BC704701000800C0B2032890
:1056F0000AD01ED3052810D00CD3072813D00FD3FF
:10570000092804D012D314E0DFF8680312E0DFF8B0
:1057100068030FE0DFF864030CE0DFF8640309E0DE
:10572000DFF8600306E0DFF8600303E0DFF85C0306
:1057300000E000207047F8B504000C250026270083
:1057400032002900380006F03BFBF1BD10B5040023
:10575000002C02D02068002800D116E060680028E4
:1057600003D060682168496A8847A068002808D08B
:105770002068C0684100A06800F018FAA06808F02E
:10578000DFFB0C21200000F011FA10BD70B50600FF
:105790000D001400002D01D0002E02D1DFF8F00220
:1057A00019E0286A80477060002802D1DFF8E4021F
:1057B00011E0002C0DD0E968022008F09FFBB060DA
:1057C000B068002805D17068696A8847DFF8C402AC
:1057D00001E03560002070BD10B50400002C02D03F
:1057E0002068002802D1DFF8A80203E06068216881
:1057F0000969884710BD70B504000D001600002C23
:1058000002D02068002801D1A14805E0320029001B
:10581000606823685B69984770BD38B504000D0067
:10582000002C02D02068002801D1994804E029000A
:10583000606822689269904732BDF8B504000D0097
:1058400016001F00002C01D1914804E03A003100FD
:105850002800E3699847F2BD00002DE9F84F94B0A5
:1058600004000D001600002C05D02068002802D08E
:10587000A068002801D186486DE02068C068B04269
:105880001CD26068216809698847070000285DD13B
:1058900032002900606823685B6998470700002888
:1058A00054D104A9606822689269904707000028D3
:1058B0004CD120688068060004A80500A06800900C
:1058C000A0682168C968084401902068C0680390F6
:1058D0005FF03609DDF800A04A460399504606F00D
:1058E0006FFA2068C06802905FF05C0ADDF804B0CF
:1058F00052460299584606F063FA00208046B045A9
:1059000014D2009810F8081015F8080041400098CB
:1059100000F80810019810F8081015F80800414028
:10592000019800F8081018F10108E8E7606821689C
:10593000096988470700002808D12068C2680099D3
:10594000606823685B69984707000028402104A825
:1059500000F02CF9380015B0BDE8F08F70B50400E8
:105960000D001600002C05D02068002802D0A06889
:10597000002801D1464805E032002900606823680C
:105980005B69984770BD2DE9F04190B004000D00AF
:10599000002C05D02068002802D0A068002801D182
:1059A0003B4834E0A0682168C96800EB01066946FD
:1059B00060682268926990470700002801D038008B
:1059C00025E060682168096988478046002801D081
:1059D00040461CE02068C2683100606823685B694B
:1059E00098470700002801D0380010E0206882683E
:1059F0006946606823685B6998478046002801D043
:105A0000404604E02900606822689269904710B01F
:105A1000BDE8F08170B50400002C05D02068002896
:105A200002D0A068002801D1194810E0A56860687C
:105A30002168096988470600002801D0300006E087
:105A40002068C2682900606823685B69984770BD58
:105A500038B504000D00002C02D02068002801D1C8
:105A60000B4804E0290060682268D26A904732BD82
:105A700000000000DC7A04080C7B04083C7B04086E
:105A80006C7B04089C7B0408CC7B0408FC7B04082A
:105A900000AFFFFF80AEFFFF0100002901D1002011
:105AA00001E08868C0B2704700F10103810704D0AB
:105AB00010F8011B820781B1FAD10268A2F101310D
:105AC000914311F0803104BF50F8042FF6E709BA72
:105AD000B1FA81F100EBD100401CC01A7047B1F55A
